:100000000C9472000C948B000C948B000C948B005D
:100010000C948B000C948B000C948B000C948B0034
:100020000C948B000C948B000C948B000C948B0024
:100030000C948B000C948B000C948B000C948B0014
:100040000C948B000C948B000C948B000C948B0004
:100050000C948B000C948B000C948B000C94A300DC
:100060000C948B000C948B000C948B000C948B00E4
:100070000C948B000C948B000C948B000C948B00D4
:100080000C948B000C948B000C948B000C948B00C4
:100090000C948B000C948B000C948B000C948B00B4
:1000A0000C948B000C948B000C948B000C948B00A4
:1000B0000C948B000C948B000C948B000C948B0094
:1000C0000C948B000C948B000C948B000C948B0084
:1000D0000C948B000C948B000C948B000C948B0074
:1000E0000C948B0011241FBECFEFD1E2DEBFCDBF39
:1000F00000E00CBF12E0A0E0B2E0E2E9F2E000E0D4
:100100000BBF02C007900D92AE30B107D9F70E9425
:100110003D010C9447010C940000279A8DB188632F
:100120008DB98EB188638EB99D9AA59A0E94C90037
:100130000E94C00083B7817F83BF7894089580E0D8
:1001400092E00C94E0001F920F920FB60F921124D0
:100150008F9385B1805885B98F910F900FBE0F9006
:100160001F90189584B1876084B9289A8CB58365EF
:100170008CBD08958EBD0DB407FEFDCF8EB50895DC
:1001800085B5856085BDEEE6F0E080818160808385
:10019000089580E18093C4001092C500E0ECF0E087
:1001A000808182608083E1ECF0E0808188618083DF
:1001B00008959091C00095FFFCCF8093C6000895EC
:1001C000CF93DF93EC018991811103C0DF91CF912F
:1001D00008950E94D900F7CF80E18093CC0010925F
:1001E000CD00E8ECF0E0808182608083E9ECF0E013
:1001F00080818861808308959091C80095FFFCCF2D
:100200008093CE00089580E18093D4001092D500B1
:10021000E0EDF0E0808182608083E1EDF0E08081BC
:100220008861808308959091D00095FFFCCF8093E2
:10023000D6000895CF93DF93EC018991811103C01B
:10024000DF91CF9108950E941301F7CF80E1809351
:10025000340110923501E0E3F1E080818260808317
:10026000E1E3F1E08081886180830895909130011D
:1002700095FFFCCF8093360108950E948D0083B7CF
:10028000816083BF889583B78E7F83BFF8CFF89452
:02029000FFCF9E
:0E02920073797374656D207265616479000084
:00000001FF
