:100000000C947A000C9493000C9493000C9493003D
:100010000C9493000C9493000C9493000C94930014
:100020000C9493000C9493000C9493000C94930004
:100030000C9493000C9493000C9493000C949300F4
:100040000C9493000C9493000C9493000C949300E4
:100050000C9493000C9493000C9493000C94EC007B
:100060000C9493000C9493000C9493000C949300C4
:100070000C9493000C9493000C9493000C949300B4
:100080000C9493000C9493000C9493000C949300A4
:100090000C9493000C9493000C9493000C94930094
:1000A0000C9493000C9493000C9493000C94930084
:1000B0000C9493000C9493000C9493000C94930074
:1000C0000C9493000C9493000C9493000C94930064
:1000D0000C9493000C9493000C9493000C94930054
:1000E0000C9493000C949D000C9495000C94A50026
:1000F0000C94A10011241FBECFEFD1E2DEBFCDBF13
:1001000000E00CBF12E0A0E0B2E0E2E3F3E000E0C8
:100110000BBF02C007900D92A639B107D9F70E9414
:1001200086010C9497010C94000082E392E00E94F7
:10013000290185B1805885B9089580E492E00C9436
:1001400029018EE492E00C9429018DE592E00C9453
:100150002901EF92FF920F931F93CF93DF938C01AE
:100160007B01C4E1D2E088819981F801208131814D
:1001700082179307A9F42A813B812E153F0581F44C
:10018000880F991F880F991FFC01E050FE4F0280D5
:10019000F381E02D19958C819D81F80191838083F5
:1001A0002696F2E0C233DF07F1F6DF91CF911F917F
:1001B0000F91FF90EF900895279A8DB188638DB9C4
:1001C0008EB188638EB99D9AA59A0E94120183B759
:1001D000817F83BF789408951F920F920FB60F927C
:1001E00011248F9385B1805885B98F910F900FBEE0
:1001F0000F901F90189584B1876084B9289A8CB5A8
:1002000083658CBD08958EBD0DB407FEFDCF8EB500
:10021000089585B5856085BDEEE6F0E0808181605A
:100220008083089580E18093C4001092C500E0ECC3
:10023000F0E0808182608083E1ECF0E08081886181
:10024000808308959091C00095FFFCCF8093C600F5
:100250000895CF93DF93EC018991811103C0DF9161
:10026000CF9108950E942201F7CF80E18093CC00C6
:100270001092CD00E8ECF0E0808182608083E9ECB0
:10028000F0E080818861808308959091C80095FF97
:10029000FCCF8093CE00089580E18093D40010922B
:1002A000D500E0EDF0E0808182608083E1EDF0E058
:1002B00080818861808308959091D00095FFFCCF64
:1002C0008093D6000895CF93DF93EC01899181113B
:1002D00003C0DF91CF9108950E945C01F7CF80E1C8
:1002E0008093340110923501E0E3F1E08081826077
:1002F0008083E1E3F1E080818861808308959091BB
:10030000300195FFFCCF809336010895CF93DF93A2
:100310001F921F92CDB7DEB70E94DC001A821982AD
:1003200063E070E0CE0101960E94A900F9CFF89435
:02033000FFCFFD
:100332006A02950075029D008002A1008C02A50050
:100342008C02A50000000300010001000000020071
:100352000200010003000200020004000300030087
:10036200040073746174653A2069646C650D0A0057
:1003720073746174653A20746573740D0A00737442
:100382006174653A2061626F72740D0A0073746160
:1003920074653A20656E640D0A0053544154452039
:1003A20049444C450053544154452054455354004C
:1003B20053544154452041424F52540053544154E6
:0603C2004520454E4400F9
:00000001FF
